:100000000C9462000C9470040C9449040C948A00C3
:100010000C948A000C948A000C948A000C948A0038
:100020000C948A000C948A000C948A000C948A0028
:100030000C948A000C948A000C948A000C948A0018
:100040000C94FF030C948A000C94CD030C94A7032A
:100050000C948A000C948A000C948A000C948A00F8
:100060000C948A000C948A000000000025002800EF
:100070002B000000000023002600290000000008DB
:10008000000201000003040700000000000000005F
:1000900000000000240027002A00010204081020AC
:1000A000408001020408102001020408102004040A
:1000B0000404040404040202020202020303030310
:1000C0000303970411241FBECFEFD8E0DEBFCDBFDE
:1000D00015E0A0E0B1E0E2E4F0E102C005900D928D
:1000E000AE31B107D9F726E0AEE1B5E001C01D920F
:1000F000A735B207E1F710E0C2E6D0E004C02197CF
:10010000FE010E941908C136D107C9F70E9458059F
:100110000C941F080C9400008230B8F4E82FF0E033
:10012000EE0FFF1FE050FF4F71836083813039F085
:1001300080916900836080936900E89A08958091B6
:1001400069008C6080936900E99A089581E080934A
:10015000AC05089581E08093AB050895AF92BF92FE
:10016000CF92DF92EF92FF920F931F93CF93DF9383
:100170006C017B018B01040F151FEB015E01AE18B2
:10018000BF08C017D10759F06991D601ED91FC91D4
:100190000190F081E02DC6010995892B79F7C50101
:1001A000DF91CF911F910F91FF90EF90DF90CF9053
:1001B000BF90AF900895FC01538D448D252F30E002
:1001C000842F90E0821B930B541710F0CF96089564
:1001D00001970895FC01918D828D981761F0A28D91
:1001E000AE0FBF2FB11D5D968C91928D9F5F9F7357
:1001F000928F90E008958FEF9FEF0895FC01918D0D
:10020000828D981731F0828DE80FF11D858D90E079
:1002100008958FEF9FEF0895FC01918D228D892F16
:1002200090E0805C9F4F821B91098F7399270895FE
:100230008DEA95E00E940C0121E0892B09F420E071
:10024000822F089580E090E0892B29F00E94180108
:1002500081110C9400000895FC01A48DA80FB92F02
:10026000B11DA35ABF4F2C91848D90E001968F73DE
:100270009927848FA689B7892C93A089B1898C91FD
:10028000837080648C93938D848D981306C002884C
:10029000F389E02D80818F7D80830895EF92FF9216
:1002A0000F931F93CF93DF93EC0181E0888F9B8D99
:1002B0008C8D98131AC0E889F989808185FF15C053
:1002C0009FB7F894EE89FF896083E889F989808176
:1002D0008370806480839FBF81E090E0DF91CF9145
:1002E0001F910F91FF90EF900895F62E0B8D10E067
:1002F0000F5F1F4F0F731127E02E8C8D8E110CC0D6
:100300000FB607FCFACFE889F989808185FFF5CF20
:10031000CE010E942C01F1CFEB8DEC0FFD2FF11DD2
:10032000E35AFF4FF0829FB7F8940B8FEA89FB895D
:1003300080818062CFCFCF93DF93EC01888D8823BB
:10034000B9F0AA89BB89E889F9898C9185FD03C038
:10035000808186FD0DC00FB607FCF7CF8C9185FF1D
:10036000F2CF808185FFEDCFCE010E942C01E9CF35
:10037000DF91CF910895833081F028F4813099F096
:100380008230A9F008958730A9F08830C9F0843010
:10039000B1F4809180008F7D03C0809180008F77C1
:1003A00080938000089584B58F7784BD089584B5C7
:1003B0008F7DFBCF8091B0008F778093B000089540
:1003C0008091B0008F7DF9CFCF93DF93282F30E05D
:1003D000F901E458FF4F8491F901E656FF4FD4919B
:1003E000F901E255FF4FC491CC23A1F081110E9485
:1003F000BB01EC2FF0E0EE0FFF1FEE58FF4FA59171
:10040000B491EC91ED2381E090E009F480E0DF917C
:10041000CF91089580E090E0FACF1F93CF93DF93C0
:10042000282F30E0F901E458FF4F8491F901E65696
:10043000FF4FD491F901E255FF4FC491CC23A9F0AD
:10044000162F81110E94BB01EC2FF0E0EE0FFF1F71
:10045000E859FF4FA591B4918FB7F894EC91111121
:1004600008C0D095DE23DC938FBFDF91CF911F9121
:100470000895DE2BF8CF1F93CF93DF93EC01162F57
:1004800080914F06909150068C30910509F047C03D
:10049000DF7080915306882309F44BC02A9880911D
:1004A000520691E0892790E0982F88279295990F1E
:1004B000907E2091510630E030E4239F302D22279A
:1004C0001124822B932B20E0312F3795332737953A
:1004D000822B932B906140914F06509150062CE057
:1004E00030E0241B350B02C0CC0FDD1F2A95E2F74C
:1004F0008C2B9D2B9EBD00000DB407FEFDCF9EB53D
:100500008EBD00000DB407FEFDCF8EB58091530661
:100510008823A9F02A9ADF91CF911F9108958A30FC
:10052000910511F4D370B5CF089709F0B2CFDD274C
:10053000B0CF60E080914B060E940D02B0CF61E029
:1005400080914B06DF91CF911F910C940D02CF93B8
:10055000DF9390E0FC01E656FF4F249182559F4FB8
:10056000FC0184918823D1F090E0880F991FFC0151
:10057000E057FF4FA591B491FC01E859FF4FC59199
:10058000D49161110EC09FB7F8948C91E22FE09541
:100590008E238C932881E223E8839FBFDF91CF9144
:1005A00008958FB7F894EC91E22BEC938FBFF6CFC0
:1005B0008E3008F08E508770806480937C0080912C
:1005C0007A00806480937A0080917A0086FDFCCF67
:1005D000809178009091790008953FB7F8948091C8
:1005E000230590912405A0912505B091260526B5F7
:1005F000A89B05C02F3F19F00196A11DB11D3FBF5B
:10060000BA2FA92F982F8827BC01CD01620F711D29
:10061000811D911D42E0660F771F881F991F4A9523
:10062000D1F708950895FC0101900020E9F7319772
:10063000AF01481B590BBC018DEA95E00C94AE004C
:100640008F929F92AF92BF920F931F93CF93DF939E
:10065000CDB7DEB7A1970FB6F894DEBF0FBECDBF02
:1006600019A2423008F44AE08E010F5D1F4F842E1C
:10067000912CB12CA12CA50194010E94E807E62F32
:10068000B901CA01EA30F4F4E05DD801EE938D01BE
:10069000232B242B252B79F790E080E0109719F07D
:1006A000CD010E941303A1960FB6F894DEBF0FBED2
:1006B000CDBFDF91CF911F910F91BF90AF909F90D1
:1006C0008F900895E95CE1CFCF92DF92EF92FF9295
:1006D000CF93DF936B017C016DE28DEA95E00E9480
:1006E0004E01EC0166277727CB016C197D098E0935
:1006F0009F094AE00E9420038C0F9D1FDF91CF913C
:10070000FF90EF90DF90CF900895CF93DF93BC01DF
:10071000990F880B990B97FF0CC00E946403EC01A2
:100720008AE195E00E9413038C0F9D1FDF91CF910A
:1007300008954AE00E942003F2CFBC01990F880B74
:10074000990B97FD0C9464034AE00C9420031F92CC
:100750000F920FB60F9211242F933F934F935F93F5
:100760006F937F938F939F93AF93BF93EF93FF9379
:100770008DEA95E00E942C01FF91EF91BF91AF911E
:100780009F918F917F916F915F914F913F912F91A9
:100790000F900FBE0F901F9018951F920F920FB6DB
:1007A0000F9211242F938F939F93EF93FF93E091D8
:1007B000BD05F091BE058081E091C305F091C405AF
:1007C00082FD1BC090818091C6058F5F8F73209141
:1007D000C705821741F0E091C605F0E0E355FA4FF6
:1007E000958F8093C605FF91EF919F918F912F91E7
:1007F0000F900FBE0F901F9018958081F4CF1F921D
:100800000F920FB60F9211242F933F938F939F93C4
:10081000AF93BF9380911F0590912005A091210572
:10082000B091220530911E0523E0230F2D3758F596
:100830000196A11DB11D20931E0580931F05909365
:100840002005A0932105B093220580912305909166
:100850002405A0912505B09126050196A11DB11D85
:100860008093230590932405A0932505B093260536
:10087000BF91AF919F918F913F912F910F900FBE9C
:100880000F901F90189526E8230F0296A11DB11D09
:10089000D2CF1F920F920FB60F9211242F933F9336
:1008A0004F935F936F937F938F939F93AF93BF9378
:1008B000EF93FF93E0910201F09103010995FF91FD
:1008C000EF91BF91AF919F918F917F916F915F91C8
:1008D0004F913F912F910F900FBE0F901F90189541
:1008E0001F920F920FB60F9211242F933F934F93A5
:1008F0005F936F937F938F939F93AF93BF93EF9388
:10090000FF93E0910001F09101010995FF91EF91B2
:10091000BF91AF919F918F917F916F915F914F9117
:100920003F912F910F900FBE0F901F901895CF936E
:100930001092B0051092AF0588EE93E0A0E0B0E011
:100940008093B1059093B205A093B305B093B4051D
:100950008CE095E09093AE058093AD0585EC90E03A
:100960009093BA058093B90584EC90E09093BC0510
:100970008093BB0580EC90E09093BE058093BD050D
:1009800081EC90E09093C0058093BF0582EC90E0ED
:100990009093C2058093C10586EC90E09093C405C6
:1009A0008093C3051092C6051092C7051092C80522
:1009B0001092C905109251061092520610925306D9
:1009C00084E090E0909355068093540681E08093F4
:1009D00056068AE090E090934C0680934B068FEF8A
:1009E0009FEF90934E0680934D068CE090E090939D
:1009F000500680934F0661E08AE00E94A70261E002
:100A000080914D060E94A70261E080914B060E94F2
:100A10000D0261E080914D060E940D02CFB7F8945F
:100A200080914A06811127C0E8EBF0E08491E4EA66
:100A3000F0E09491E82FF0E0EE0FFF1FE057FF4F3A
:100A4000A591B491EC91E92321F461E08AE00E9440
:100A50000D0261E08AE00E94A7028CB580618CBD26
:100A60008CB580648CBD61E08DE00E94A70261E0DE
:100A70008BE00E94A70280914A068F5F80934A060E
:100A8000CFBF8CB58F7D8CBD8CB5837F8CBD8091A5
:100A900054069CB59C7F282F2370922B9CBD9DB53E
:100AA00082FB882780F99E7F892B8DBDCF91089589
:100AB000789484B5826084BD84B5816084BD85B539
:100AC000826085BD85B5816085BD80916E00816045
:100AD00080936E00109281008091810082608093EB
:100AE00081008091810081608093810080918000ED
:100AF0008160809380008091B10084608093B10018
:100B00008091B00081608093B00080917A00846011
:100B100080937A0080917A00826080937A0080913D
:100B20007A00816080937A0080917A008068809357
:100B30007A001092C10060E08EE00E94A70260E09F
:100B40008FE00E94A70260E080E10E94A70260E0BF
:100B500081E10E94A70260E082E00E94A70260E0BB
:100B600083E00E94A70260E088E00E94A70260E0A4
:100B700087E00E94A70283E10E94D802BC01990F7E
:100B8000880B990B611571058105910511F00E9483
:100B9000AD07C7E2D5E009E615E087E6E82E85E077
:100BA000F82E9DEF892E9FE0992EA12CB12C0E944A
:100BB0005E07A50194010E94B6076F5F7F4F8F4FBC
:100BC0009F4F699379930E945E07A50194010E944B
:100BD000B6076F5F7F4F8F4F9F4FF80161937193FF
:100BE0008F01EC16FD0619F71092AC051092AB05BB
:100BF00066EA70E080E00E948C006AEA70E081E0C2
:100C00000E948C00C12CC8E0DC2EE12CF12CDDEF21
:100C10008D2EDFE09D2EA12CB12C00E010E0809104
:100C2000AC05882309F441C0C0916705D0916805DF
:100C30002196D0936805C09367058FE00E94D80283
:100C400097FD4F96B5E095958795BA95E1F78C1786
:100C50009D0724F410926805109267058EE00E94AB
:100C6000D802EC0188E00E94E401892B09F47EC0DF
:100C7000D7FD2396D595C795D595C79580916705DE
:100C800090916805C80FD91FCF3FD10511F00CF026
:100C9000DA95CC0FDD1FC85FDE4F8881998170E047
:100CA00060E00E943B021092AC058091AB05882366
:100CB00009F441C0C091A905D091AA052196D0930D
:100CC000AA05C093A90581E10E94D80297FD4F961D
:100CD00055E0959587955A95E1F78C179D0724F473
:100CE0001092AA051092A90580E10E94D802EC0199
:100CF00087E00E94E401892B09F466C0D7FD2396A2
:100D0000D595C795D595C7958091A9059091AA05C8
:100D1000C80FD91FCF3FD10511F00CF0DA95CC0FD9
:100D2000DD1FC85FDC4F8881998161E070E00E941F
:100D30003B021092AB050E94ED022B013C010E9488
:100D4000ED026419750986099709683E73408105AB
:100D50009105A8F30115110509F461CF0E9418014E
:100D6000882309F45CCF0E94000059CF0E945E07DF
:100D70002E01DD0F66087708A70196010E94B607CD
:100D80006415750586059705A4F40E945E07C09159
:100D90006705D0916805CC0FDD1FC95DDA4FA5014D
:100DA00094010E94B6076F5F7F4F8F4F9F4F7983EB
:100DB0006883E0916705F0916805EE0FFF1FE95D1C
:100DC000FA4F808191816BCF0E945E072E01DD0F6B
:100DD00066087708A70196010E94B6076415750595
:100DE00086059705A4F40E945E07C091A905D091DD
:100DF000AA05CC0FDD1FC759DA4FA50194010E9447
:100E0000B6076F5F7F4F8F4F9F4F79836883E09165
:100E1000A905F091AA05EE0FFF1FE759FA4F80814F
:100E2000918183CF8F929F92AF92BF92CF92DF92A8
:100E3000EF92FF92CF93DF93EC01688179818A81F1
:100E40009B81611571058105910521F464E279EDBD
:100E50008BE597E02DE133EF41E050E00E94B607CB
:100E600049015A019B01AC01A7EAB1E40E94D507F0
:100E70006B017C01ACEEB4EFA50194010E94E30785
:100E8000C60ED71EE81EF91EF7FE06C081E0C81A7E
:100E9000D108E10880E8F80AC882D982EA82FB8298
:100EA000C701B6019F77DF91CF91FF90EF90DF9060
:100EB000CF90BF90AF909F908F9008958F929F9208
:100EC000AF92BF92CF92DF92EF92FF9260910401B6
:100ED00070910501809106019091070161157105DE
:100EE0008105910521F464E279ED8BE597E02DE130
:100EF00033EF41E050E00E94B60749015A019B01DF
:100F0000AC01A7EAB1E40E94D5076B017C01ACEE0D
:100F1000B4EFA50194010E94E307C60ED71EE81E98
:100F2000F91EF7FE06C081E0C81AD108E10880E882
:100F3000F80AC0920401D0920501E0920601F092F5
:100F40000701C701B6019F77FF90EF90DF90CF9028
:100F5000BF90AF909F908F9008956093040170931D
:100F6000050180930601909307010895052E97FBD4
:100F70001EF400940E94CD0757FD07D00E94E80799
:100F800007FC03D04EF40C94CD0750954095309556
:100F900021953F4F4F4F5F4F0895909580957095E5
:100FA00061957F4F8F4F9F4F08950E940A08A59F1C
:100FB000900DB49F900DA49F800D911D1124089554
:100FC000B7FF0C94D5070E94D507821B930B089599
:100FD000A1E21A2EAA1BBB1BFD010DC0AA1FBB1F3D
:100FE000EE1FFF1FA217B307E407F50720F0A21BAF
:100FF000B30BE40BF50B661F771F881F991F1A941C
:1010000069F760957095809590959B01AC01BD0145
:10101000CF010895A29FB001B39FC001A39F700D9F
:10102000811D1124911DB29F700D811D1124911DF0
:101030000895EE0FFF1F0590F491E02D0994F894A8
:02104000FFCFE0
:101042001203120301000000DC05BD07B408EB0C1B
:101052007B067B08040D790457033308F60E40061D
:10106200DB07AB069207AB0B1002A8025F0A2F0A3E
:10107200FB0C43094B076D09250083053509BE07A3
:10108200E00CFE0902032405380D230D7D05D00571
:10109200D10B64077602060AAC08DC01A9069B089C
:1010A2007B0EAC074C07910FCC025000C20B6C07B1
:1010B200C106AC097905FD0A3009FD032E05680C4D
:1010C200C20E0703D606210D18039D02080DBA07AA
:1010D2005F04260D42088B0998086B03640ABC0C56
:1010E200CE0614063803F804D40D5909E304560C4D
:1010F2006009D604E1026A0A2F0D2801C9082309F2
:101102007F09F80D9A004C05C50BB506300C800618
:1011120001009D054A0DFF0EAF0544091F084D054C
:10112200CA0CCD0A64054E06410A9301F606FE0F6B
:101132000B03AD00A90A2C081F0B2A0B4902B509A3
:10114200BA09B101E903F90C9609BC06F608020CCA
:10115200640BBB073C02E8011D0E790CA20539079E
:101162000D0B3B068008ED044905BC0CF708F0079F
:10117200B20746078D046204360623078309770EF9
:101182003B0CE0021104DE0C720501077F0F2903FC
:10119200C802C20B51078F0AE70A4901430BF20E3C
:1011A200490200080A062302F80E3B0C7B004104A8
:1011B2000709050A030F88044D053E0E0B025D0167
:1011C200AE0EB90E2C027506200886040C0A680CB5
:1011D200A0091C07CA074F04360A78054806BF084B
:1011E200D302A209DB0E090B1B082506CB04BE079E
:1011F2005F09E909B8057704DC0A4F0C5A06E903CE
:10120200C8035B06E80ACE0E2908D407B10B2702F1
:10121200D5047D0D4704CD02E40CB807F4062A0C70
:10122200270A3409920356076D0CCA04D704BE0C70
:10123200F706BF07980B6D04FA032A069B09E0071D
:101242000C04D1075B0BF9071D0860092A0A2E0955
:101252002608BB06A4077509DD07F40504065E0827
:101262002C0D8408B6046D0A0C0BD10170061E0BFE
:101272007A03240D290D960238030408E60E0507A9
:101282005A04BD0EA90A2A0019027C081E0C9E0BE4
:101292000D081D06F106A30A170D000CBC03540429
:1012A200D90BD3065301650B750EEE08A101B108E7
:1012B2003D0A8C0298074009190AFA07A10B070A8E
:1012C2003D046405370B7207BC0645090606630E2A
:1012D200B5070201F008390CAA0DB5065A016407D8
:1012E200190E550A27062D0BDF023B01FF082D07B9
:1012F2009B0EDD097506AC06C105C20837095F0BF6
:10130200B1050E07E20D0E0D5207A8014109E00BCF
:10131200920751081908B1043D04050E1F0B8106FE
:10132200B0055E0302067A082509E30A2C0C25049F
:10133200CA08AB0C0908DE0442065A0A390BFE053C
:10134200A60398082F0B870A1507750A71062D0741
:101352003D095E037407160EE20A46051B03FD04EF
:10136200FA08FE0F6E0A2600CE07C30C1D073F05C2
:10137200090D3E0D8B0139058308350AC70D83041B
:101382001505EC09C109F7049606630D1F0B7E05CE
:10139200D600B90CDF0F2906CF0714035804A00F9B
:1013A200080A5407A5055D056B0C84085D07370321
:1013B20030082E0FD10844041805090CAD0A5D0946
:1013C2004D050100EE080F0C1D0CEB082E021D0B43
:1013D200420A6A071207F5077C09150338040C074D
:1013E200340BC70C9E0AAB03FE060F0B1C06180635
:1013F2003A0C3A083405340CBC0AAD0A34024A07E6
:101402001C0C2707EE08E0042B09E70C4107310802
:101412002603B701AA0E5A0FC607970684085E0272
:1014220005065408E0048208370A2007FB06740800
:10143200040C63083B03250F530CA9021C0BD106B5
:101442009804220F9C098A04000000004E01AE009D
:0E145200DB009B010C01EA00FE000D0A000009
:107800000C94343C0C94513C0C94513C0C94513CE1
:107810000C94513C0C94513C0C94513C0C94513CB4
:107820000C94513C0C94513C0C94513C0C94513CA4
:107830000C94513C0C94513C0C94513C0C94513C94
:107840000C94513C0C94513C0C94513C0C94513C84
:107850000C94513C0C94513C0C94513C0C94513C74
:107860000C94513C0C94513C11241FBECFEFD8E036
:10787000DEBFCDBF11E0A0E0B1E0ECE9FFE702C060
:1078800005900D92A230B107D9F712E0A2E0B1E065
:1078900001C01D92AD30B107E1F70E942D3D0C945F
:1078A000CC3F0C94003C982F959595959595959582
:1078B000905D8F708A307CF0282F295A8091C0000B
:1078C00085FFFCCF9093C6008091C00085FFFCCF60
:1078D0002093C6000895282F205DF0CF982F809127
:1078E000C00085FFFCCF9093C6000895EF92FF92F1
:1078F0000F931F93EE24FF2487018091C00087FD22
:1079000017C00894E11CF11C011D111D81E4E8164B
:1079100082E4F8068FE0080780E0180770F3E09132
:107920000401F091050109958091C00087FFE9CF1E
:107930008091C6001F910F91FF90EF9008950E94D3
:10794000763C982F8091C00085FFFCCF9093C600B5
:1079500091362CF490330CF09053892F089597555D
:10796000892F08951F930E949F3C182F0E949F3CCF
:107970001295107F810F1F9108951F93182F882350
:1079800021F00E94763C1150E1F71F9108951F935A
:10799000182F0E94763C803249F0809103018F5F5E
:1079A000809303018530C1F01F9108958091C0003C
:1079B00085FFFCCF84E18093C6008091C00085FFE5
:1079C000FCCF1093C6008091C00085FFFCCF80E102
:1079D0008093C6001F910895E0910401F091050184
:1079E00009951F9108950E94763C803241F0809164
:1079F00003018F5F80930301853081F008958091AA
:107A0000C00085FFFCCF84E18093C6008091C00058
:107A100085FFFCCF80E18093C6000895E0910401CA
:107A2000F09105010995089540E951E08823A1F0FE
:107A30002D9A28EE33E0FA013197F1F721503040CA
:107A4000D1F72D9828EE33E0FA013197F1F7215064
:107A50003040D1F7815061F708953F924F925F9285
:107A60006F927F928F929F92AF92BF92CF92DF924E
:107A7000EF92FF920F931F93CF93DF93000080E16B
:107A80008093C4001092C50088E18093C10086E015
:107A90008093C2005098589A259A81E00E94143D24
:107AA00024E1F22E9EE1E92E85E9D82E0FE0C02ECA
:107AB00010E1B12EAA24A394B1E49B2EA6E58A2E50
:107AC000F2E57F2EE0E26E2E79E4572E63E5462E36
:107AD00050E5352E0E94763C8033B1F18133B9F107
:107AE000803409F46FC0813409F476C0823409F41B
:107AF00085C0853409F488C0803531F1823521F1A3
:107B0000813511F1853509F485C0863509F48DC0BC
:107B1000843609F496C0843709F403C1853709F423
:107B200072C1863709F466C0809103018F5F80932C
:107B30000301853079F6E0910401F0910501099582
:107B40000E94763C803351F60E94F33CC3CF0E94E2
:107B5000763C803249F78091C00085FFFCCFF092DF
:107B6000C6008091C00085FFFCCF9092C600809136
:107B7000C00085FFFCCF8092C6008091C00085FFC9
:107B8000FCCF7092C6008091C00085FFFCCF609250
:107B9000C6008091C00085FFFCCF5092C600809146
:107BA000C00085FFFCCF4092C6008091C00085FFD9
:107BB000FCCF3092C6008091C00085FFFCCFB09210
:107BC000C60088CF0E94763C863808F4BDCF0E945C
:107BD000763C0E94F33C7ECF0E94763C803809F4CC
:107BE0009CC0813809F40BC1823809F43CC1883942
:107BF00009F48FC080E00E94C73C6CCF84E10E94F2
:107C0000BD3C0E94F33C66CF85E00E94BD3C0E94D3
:107C1000F33C60CF0E94763C809306010E94763C44
:107C2000809307010E94F33C55CF0E94763C80333D
:107C300009F41DC183E00E94BD3C80E00E94C73C66
:107C400049CF0E94763C809309020E94763C809343
:107C5000080280910C028E7F80930C020E94763C79
:107C6000853409F415C18091080290910902892B8D
:107C700089F000E010E00E94763CF801E85FFE4FDA
:107C800080830F5F1F4F80910802909109020817AF
:107C9000190788F30E94763C803209F045CF809125
:107CA0000C0280FF01C16091060170910701660F0F
:107CB000771F7093070160930601A0910802B091AD
:107CC00009021097C9F0E8E0F1E09B01AD014E0F09
:107CD0005F1FF999FECF32BD21BD819180BDFA9A17
:107CE000F99A2F5F3F4FE417F50799F76A0F7B1F4B
:107CF00070930701609306018091C00085FFFCCF5F
:107D0000F092C6008091C00085FFFCCFB092C60003
:107D1000E1CE83E00E94C73CDDCE82E00E94C73CFA
:107D2000D9CE0E94763C809309020E94763C8093D3
:107D300008028091060190910701880F991F909386
:107D40000701809306010E94763C853409F4A6C0A1
:107D500080910C028E7F80930C020E94763C8032D0
:107D600009F0B8CE8091C00085FFFCCFF092C6002C
:107D7000609108027091090261157105B9F140E046
:107D800050E080910C02A82FA170B82FB27011C0E2
:107D9000BB2309F45CC0E0910601F0910701319624
:107DA000F0930701E09306014F5F5F4F46175707B7
:107DB000E8F4AA2369F3F999FECF209106013091E6
:107DC000070132BD21BDF89A90B58091C00085FFB2
:107DD000FCCF9093C6002F5F3F4F30930701209355
:107DE00006014F5F5F4F4617570718F38091C00099
:107DF00085FDE5CE8091C00085FFF8CFE0CE81E023
:107E00000E94C73C67CE0E94763C803209F08CCE3F
:107E10008091C00085FFFCCFF092C6008091C00029
:107E200085FFFCCFE092C6008091C00085FFFCCFAB
:107E3000D092C6008091C00085FFFCCFC092C600E2
:107E40008091C00085FFFCCFB092C60043CEE09188
:107E50000601F091070194918091C00085FFFCCF4D
:107E60009093C6009CCF80E10E94C73C33CE0E9415
:107E7000763C0E94763C182F0E94763C112309F430
:107E800083C0113009F484C08FE00E94C73C22CE29
:107E900080910C02816080930C02E5CE80910C02EF
:107EA000816080930C0259CF809107018823880F4D
:107EB000880B8A2180930B02809106019091070123
:107EC000880F991F90930701809306018091080203
:107ED00080FF09C080910802909109020196909359
:107EE000090280930802F894F999FECF1127E091D6
:107EF0000601F0910701C8E0D1E08091080290915D
:107F00000902103091F40091570001700130D9F34B
:107F100003E000935700E89500915700017001308D
:107F2000D9F301E100935700E89509901990009169
:107F3000570001700130D9F301E000935700E89534
:107F40001395103498F011270091570001700130FB
:107F5000D9F305E000935700E895009157000170B0
:107F60000130D9F301E100935700E895329602976A
:107F700009F0C7CF103011F00296E5CF112480919F
:107F8000C00085FFB9CEBCCE8EE10E94C73CA2CD19
:0C7F900085E90E94C73C9ECDF894FFCF0D
:027F9C00800063
:040000030000780081
:00000001FF
